{
  "_format": "hh-sol-artifact-1",
  "contractName": "Quick",
  "sourceName": "contracts/Quick.sol",
  "abi": [
    {
      "inputs": [
        {
          "internalType": "address",
          "name": "gateway_",
          "type": "address"
        }
      ],
      "payable": false,
      "stateMutability": "nonpayable",
      "type": "constructor"
    },
    {
      "anonymous": false,
      "inputs": [
        {
          "indexed": true,
          "internalType": "address",
          "name": "owner",
          "type": "address"
        },
        {
          "indexed": true,
          "internalType": "address",
          "name": "spender",
          "type": "address"
        },
        {
          "indexed": false,
          "internalType": "uint256",
          "name": "amount",
          "type": "uint256"
        }
      ],
      "name": "Approval",
      "type": "event"
    },
    {
      "anonymous": false,
      "inputs": [
        {
          "indexed": true,
          "internalType": "address",
          "name": "delegator",
          "type": "address"
        },
        {
          "indexed": true,
          "internalType": "address",
          "name": "fromDelegate",
          "type": "address"
        },
        {
          "indexed": true,
          "internalType": "address",
          "name": "toDelegate",
          "type": "address"
        }
      ],
      "name": "DelegateChanged",
      "type": "event"
    },
    {
      "anonymous": false,
      "inputs": [
        {
          "indexed": true,
          "internalType": "address",
          "name": "delegate",
          "type": "address"
        },
        {
          "indexed": false,
          "internalType": "uint256",
          "name": "previousBalance",
          "type": "uint256"
        },
        {
          "indexed": false,
          "internalType": "uint256",
          "name": "newBalance",
          "type": "uint256"
        }
      ],
      "name": "DelegateVotesChanged",
      "type": "event"
    },
    {
      "anonymous": false,
      "inputs": [
        {
          "indexed": true,
          "internalType": "address",
          "name": "from",
          "type": "address"
        },
        {
          "indexed": true,
          "internalType": "address",
          "name": "to",
          "type": "address"
        },
        {
          "indexed": false,
          "internalType": "uint256",
          "name": "amount",
          "type": "uint256"
        }
      ],
      "name": "Transfer",
      "type": "event"
    },
    {
      "constant": true,
      "inputs": [],
      "name": "DELEGATION_TYPEHASH",
      "outputs": [
        {
          "internalType": "bytes32",
          "name": "",
          "type": "bytes32"
        }
      ],
      "payable": false,
      "stateMutability": "view",
      "type": "function"
    },
    {
      "constant": true,
      "inputs": [],
      "name": "DOMAIN_TYPEHASH",
      "outputs": [
        {
          "internalType": "bytes32",
          "name": "",
          "type": "bytes32"
        }
      ],
      "payable": false,
      "stateMutability": "view",
      "type": "function"
    },
    {
      "constant": true,
      "inputs": [],
      "name": "PERMIT_TYPEHASH",
      "outputs": [
        {
          "internalType": "bytes32",
          "name": "",
          "type": "bytes32"
        }
      ],
      "payable": false,
      "stateMutability": "view",
      "type": "function"
    },
    {
      "constant": true,
      "inputs": [
        {
          "internalType": "address",
          "name": "account",
          "type": "address"
        },
        {
          "internalType": "address",
          "name": "spender",
          "type": "address"
        }
      ],
      "name": "allowance",
      "outputs": [
        {
          "internalType": "uint256",
          "name": "",
          "type": "uint256"
        }
      ],
      "payable": false,
      "stateMutability": "view",
      "type": "function"
    },
    {
      "constant": false,
      "inputs": [
        {
          "internalType": "address",
          "name": "spender",
          "type": "address"
        },
        {
          "internalType": "uint256",
          "name": "rawAmount",
          "type": "uint256"
        }
      ],
      "name": "approve",
      "outputs": [
        {
          "internalType": "bool",
          "name": "",
          "type": "bool"
        }
      ],
      "payable": false,
      "stateMutability": "nonpayable",
      "type": "function"
    },
    {
      "constant": true,
      "inputs": [
        {
          "internalType": "address",
          "name": "account",
          "type": "address"
        }
      ],
      "name": "balanceOf",
      "outputs": [
        {
          "internalType": "uint256",
          "name": "",
          "type": "uint256"
        }
      ],
      "payable": false,
      "stateMutability": "view",
      "type": "function"
    },
    {
      "constant": true,
      "inputs": [
        {
          "internalType": "address",
          "name": "",
          "type": "address"
        },
        {
          "internalType": "uint32",
          "name": "",
          "type": "uint32"
        }
      ],
      "name": "checkpoints",
      "outputs": [
        {
          "internalType": "uint32",
          "name": "fromBlock",
          "type": "uint32"
        },
        {
          "internalType": "uint96",
          "name": "votes",
          "type": "uint96"
        }
      ],
      "payable": false,
      "stateMutability": "view",
      "type": "function"
    },
    {
      "constant": true,
      "inputs": [],
      "name": "decimals",
      "outputs": [
        {
          "internalType": "uint8",
          "name": "",
          "type": "uint8"
        }
      ],
      "payable": false,
      "stateMutability": "view",
      "type": "function"
    },
    {
      "constant": false,
      "inputs": [
        {
          "internalType": "address",
          "name": "delegatee",
          "type": "address"
        }
      ],
      "name": "delegate",
      "outputs": [],
      "payable": false,
      "stateMutability": "nonpayable",
      "type": "function"
    },
    {
      "constant": false,
      "inputs": [
        {
          "internalType": "address",
          "name": "delegatee",
          "type": "address"
        },
        {
          "internalType": "uint256",
          "name": "nonce",
          "type": "uint256"
        },
        {
          "internalType": "uint256",
          "name": "expiry",
          "type": "uint256"
        },
        {
          "internalType": "uint8",
          "name": "v",
          "type": "uint8"
        },
        {
          "internalType": "bytes32",
          "name": "r",
          "type": "bytes32"
        },
        {
          "internalType": "bytes32",
          "name": "s",
          "type": "bytes32"
        }
      ],
      "name": "delegateBySig",
      "outputs": [],
      "payable": false,
      "stateMutability": "nonpayable",
      "type": "function"
    },
    {
      "constant": true,
      "inputs": [
        {
          "internalType": "address",
          "name": "",
          "type": "address"
        }
      ],
      "name": "delegates",
      "outputs": [
        {
          "internalType": "address",
          "name": "",
          "type": "address"
        }
      ],
      "payable": false,
      "stateMutability": "view",
      "type": "function"
    },
    {
      "constant": false,
      "inputs": [
        {
          "internalType": "address",
          "name": "user",
          "type": "address"
        },
        {
          "internalType": "bytes",
          "name": "depositData",
          "type": "bytes"
        }
      ],
      "name": "deposit",
      "outputs": [],
      "payable": false,
      "stateMutability": "nonpayable",
      "type": "function"
    },
    {
      "constant": true,
      "inputs": [],
      "name": "gateway",
      "outputs": [
        {
          "internalType": "address",
          "name": "",
          "type": "address"
        }
      ],
      "payable": false,
      "stateMutability": "view",
      "type": "function"
    },
    {
      "constant": true,
      "inputs": [
        {
          "internalType": "address",
          "name": "account",
          "type": "address"
        }
      ],
      "name": "getCurrentVotes",
      "outputs": [
        {
          "internalType": "uint96",
          "name": "",
          "type": "uint96"
        }
      ],
      "payable": false,
      "stateMutability": "view",
      "type": "function"
    },
    {
      "constant": true,
      "inputs": [
        {
          "internalType": "address",
          "name": "account",
          "type": "address"
        },
        {
          "internalType": "uint256",
          "name": "blockNumber",
          "type": "uint256"
        }
      ],
      "name": "getPriorVotes",
      "outputs": [
        {
          "internalType": "uint96",
          "name": "",
          "type": "uint96"
        }
      ],
      "payable": false,
      "stateMutability": "view",
      "type": "function"
    },
    {
      "constant": true,
      "inputs": [],
      "name": "name",
      "outputs": [
        {
          "internalType": "string",
          "name": "",
          "type": "string"
        }
      ],
      "payable": false,
      "stateMutability": "view",
      "type": "function"
    },
    {
      "constant": true,
      "inputs": [
        {
          "internalType": "address",
          "name": "",
          "type": "address"
        }
      ],
      "name": "nonces",
      "outputs": [
        {
          "internalType": "uint256",
          "name": "",
          "type": "uint256"
        }
      ],
      "payable": false,
      "stateMutability": "view",
      "type": "function"
    },
    {
      "constant": true,
      "inputs": [
        {
          "internalType": "address",
          "name": "",
          "type": "address"
        }
      ],
      "name": "numCheckpoints",
      "outputs": [
        {
          "internalType": "uint32",
          "name": "",
          "type": "uint32"
        }
      ],
      "payable": false,
      "stateMutability": "view",
      "type": "function"
    },
    {
      "constant": false,
      "inputs": [
        {
          "internalType": "address",
          "name": "owner",
          "type": "address"
        },
        {
          "internalType": "address",
          "name": "spender",
          "type": "address"
        },
        {
          "internalType": "uint256",
          "name": "rawAmount",
          "type": "uint256"
        },
        {
          "internalType": "uint256",
          "name": "deadline",
          "type": "uint256"
        },
        {
          "internalType": "uint8",
          "name": "v",
          "type": "uint8"
        },
        {
          "internalType": "bytes32",
          "name": "r",
          "type": "bytes32"
        },
        {
          "internalType": "bytes32",
          "name": "s",
          "type": "bytes32"
        }
      ],
      "name": "permit",
      "outputs": [],
      "payable": false,
      "stateMutability": "nonpayable",
      "type": "function"
    },
    {
      "constant": true,
      "inputs": [],
      "name": "symbol",
      "outputs": [
        {
          "internalType": "string",
          "name": "",
          "type": "string"
        }
      ],
      "payable": false,
      "stateMutability": "view",
      "type": "function"
    },
    {
      "constant": true,
      "inputs": [],
      "name": "totalSupply",
      "outputs": [
        {
          "internalType": "uint256",
          "name": "",
          "type": "uint256"
        }
      ],
      "payable": false,
      "stateMutability": "view",
      "type": "function"
    },
    {
      "constant": false,
      "inputs": [
        {
          "internalType": "address",
          "name": "dst",
          "type": "address"
        },
        {
          "internalType": "uint256",
          "name": "rawAmount",
          "type": "uint256"
        }
      ],
      "name": "transfer",
      "outputs": [
        {
          "internalType": "bool",
          "name": "",
          "type": "bool"
        }
      ],
      "payable": false,
      "stateMutability": "nonpayable",
      "type": "function"
    },
    {
      "constant": false,
      "inputs": [
        {
          "internalType": "address",
          "name": "src",
          "type": "address"
        },
        {
          "internalType": "address",
          "name": "dst",
          "type": "address"
        },
        {
          "internalType": "uint256",
          "name": "rawAmount",
          "type": "uint256"
        }
      ],
      "name": "transferFrom",
      "outputs": [
        {
          "internalType": "bool",
          "name": "",
          "type": "bool"
        }
      ],
      "payable": false,
      "stateMutability": "nonpayable",
      "type": "function"
    },
    {
      "constant": false,
      "inputs": [
        {
          "internalType": "uint256",
          "name": "rawAmount",
          "type": "uint256"
        }
      ],
      "name": "withdraw",
      "outputs": [],
      "payable": false,
      "stateMutability": "nonpayable",
      "type": "function"
    }
  ],
  "bytecode": "0x6080604052600080553480156200001557600080fd5b506040516200406b3803806200406b83398181016040526200003b91908101906200009a565b80600760006101000a81548173ffffffffffffffffffffffffffffffffffffffff021916908373ffffffffffffffffffffffffffffffffffffffff1602179055505062000114565b6000815190506200009481620000fa565b92915050565b600060208284031215620000ad57600080fd5b6000620000bd8482850162000083565b91505092915050565b6000620000d382620000da565b9050919050565b600073ffffffffffffffffffffffffffffffffffffffff82169050919050565b6200010581620000c6565b81146200011157600080fd5b50565b613f4780620001246000396000f3fe608060405234801561001057600080fd5b50600436106101585760003560e01c806370a08231116100c3578063c3cda5201161007c578063c3cda52014610417578063cf2c52cb14610433578063d505accf1461044f578063dd62ed3e1461046b578063e7a324dc1461049b578063f1127ed8146104b957610158565b806370a0823114610309578063782d6fe1146103395780637ecebe001461036957806395d89b4114610399578063a9059cbb146103b7578063b4b5ea57146103e757610158565b80632e1a7d4d116101155780632e1a7d4d1461023557806330adf81f14610251578063313ce5671461026f578063587cde1e1461028d5780635c19a95c146102bd5780636fcfff45146102d957610158565b806306fdde031461015d578063095ea7b31461017b578063116191b6146101ab57806318160ddd146101c957806320606b70146101e757806323b872dd14610205575b600080fd5b6101656104ea565b60405161017291906137f1565b60405180910390f35b61019560048036036101909190810190612da1565b610523565b6040516101a2919061368b565b60405180910390f35b6101b36106b6565b6040516101c09190613670565b60405180910390f35b6101d16106dc565b6040516101de91906139d5565b60405180910390f35b6101ef6106e2565b6040516101fc91906136a6565b60405180910390f35b61021f600480360361021a9190810190612c5c565b6106f9565b60405161022c919061368b565b60405180910390f35b61024f600480360361024a9190810190612ea2565b61098d565b005b6102596109c1565b60405161026691906136a6565b60405180910390f35b6102776109d8565b6040516102849190613a34565b60405180910390f35b6102a760048036036102a29190810190612bf7565b6109dd565b6040516102b49190613670565b60405180910390f35b6102d760048036036102d29190810190612bf7565b610a10565b005b6102f360048036036102ee9190810190612bf7565b610a1d565b60405161030091906139f0565b60405180910390f35b610323600480360361031e9190810190612bf7565b610a40565b60405161033091906139d5565b60405180910390f35b610353600480360361034e9190810190612da1565b610aaf565b6040516103609190613a6a565b60405180910390f35b610383600480360361037e9190810190612bf7565b610ec2565b60405161039091906139d5565b60405180910390f35b6103a1610eda565b6040516103ae91906137f1565b60405180910390f35b6103d160048036036103cc9190810190612da1565b610f13565b6040516103de919061368b565b60405180910390f35b61040160048036036103fc9190810190612bf7565b610f50565b60405161040e9190613a6a565b60405180910390f35b610431600480360361042c9190810190612ddd565b61103e565b005b61044d60048036036104489190810190612d49565b6112e1565b005b61046960048036036104649190810190612cab565b6113c9565b005b61048560048036036104809190810190612c20565b61181b565b60405161049291906139d5565b60405180910390f35b6104a36118c8565b6040516104b091906136a6565b60405180910390f35b6104d360048036036104ce9190810190612e66565b6118df565b6040516104e1929190613a0b565b60405180910390f35b6040518060400160405280600981526020017f517569636b73776170000000000000000000000000000000000000000000000081525081565b6000807fffffffffffffffffffffffffffffffffffffffffffffffffffffffffffffffff831415610576577fffffffffffffffffffffffffffffffffffffffffffffffffffffffffffffffff905061059b565b61059883604051806060016040528060268152602001613cde60269139611938565b90505b80600160003373ffffffffffffffffffffffffffffffffffffffff1673ffffffffffffffffffffffffffffffffffffffff16815260200190815260200160002060008673ffffffffffffffffffffffffffffffffffffffff1673ffffffffffffffffffffffffffffffffffffffff16815260200190815260200160002060006101000a8154816bffffffffffffffffffffffff02191690836bffffffffffffffffffffffff1602179055508373ffffffffffffffffffffffffffffffffffffffff163373ffffffffffffffffffffffffffffffffffffffff167f8c5be1e5ebec7d5bd14f71427d1e84f3dd0314c0f7b2291e5b200ac8c7c3b925836040516106a39190613a4f565b60405180910390a3600191505092915050565b600760009054906101000a900473ffffffffffffffffffffffffffffffffffffffff1681565b60005481565b6040516106ee90613646565b604051809103902081565b6000803390506000600160008773ffffffffffffffffffffffffffffffffffffffff1673ffffffffffffffffffffffffffffffffffffffff16815260200190815260200160002060008373ffffffffffffffffffffffffffffffffffffffff1673ffffffffffffffffffffffffffffffffffffffff16815260200190815260200160002060009054906101000a90046bffffffffffffffffffffffff16905060006107bc85604051806060016040528060268152602001613cde60269139611938565b90508673ffffffffffffffffffffffffffffffffffffffff168373ffffffffffffffffffffffffffffffffffffffff161415801561083657507fffffffffffffffffffffffffffffffffffffffffffffffffffffffffffffffff6bffffffffffffffffffffffff16826bffffffffffffffffffffffff1614155b1561097457600061086083836040518060600160405280603e8152602001613db0603e9139611996565b905080600160008a73ffffffffffffffffffffffffffffffffffffffff1673ffffffffffffffffffffffffffffffffffffffff16815260200190815260200160002060008673ffffffffffffffffffffffffffffffffffffffff1673ffffffffffffffffffffffffffffffffffffffff16815260200190815260200160002060006101000a8154816bffffffffffffffffffffffff02191690836bffffffffffffffffffffffff1602179055508373ffffffffffffffffffffffffffffffffffffffff168873ffffffffffffffffffffffffffffffffffffffff167f8c5be1e5ebec7d5bd14f71427d1e84f3dd0314c0f7b2291e5b200ac8c7c3b9258360405161096a9190613a4f565b60405180910390a3505b61097f878783611a07565b600193505050509392505050565b60006109b182604051806060016040528060278152602001613c6360279139611938565b90506109bd3382611de8565b5050565b6040516109cd90613631565b604051809103902081565b601281565b60036020528060005260406000206000915054906101000a900473ffffffffffffffffffffffffffffffffffffffff1681565b610a1a3382612003565b50565b60056020528060005260406000206000915054906101000a900463ffffffff1681565b6000600260008373ffffffffffffffffffffffffffffffffffffffff1673ffffffffffffffffffffffffffffffffffffffff16815260200190815260200160002060009054906101000a90046bffffffffffffffffffffffff166bffffffffffffffffffffffff169050919050565b6000438210610af3576040517f08c379a0000000000000000000000000000000000000000000000000000000008152600401610aea90613915565b60405180910390fd5b6000600560008573ffffffffffffffffffffffffffffffffffffffff1673ffffffffffffffffffffffffffffffffffffffff16815260200190815260200160002060009054906101000a900463ffffffff16905060008163ffffffff161415610b60576000915050610ebc565b82600460008673ffffffffffffffffffffffffffffffffffffffff1673ffffffffffffffffffffffffffffffffffffffff16815260200190815260200160002060006001840363ffffffff1663ffffffff16815260200190815260200160002060000160009054906101000a900463ffffffff1663ffffffff1611610c6257600460008573ffffffffffffffffffffffffffffffffffffffff1673ffffffffffffffffffffffffffffffffffffffff16815260200190815260200160002060006001830363ffffffff1663ffffffff16815260200190815260200160002060000160049054906101000a90046bffffffffffffffffffffffff16915050610ebc565b82600460008673ffffffffffffffffffffffffffffffffffffffff1673ffffffffffffffffffffffffffffffffffffffff16815260200190815260200160002060008063ffffffff16815260200190815260200160002060000160009054906101000a900463ffffffff1663ffffffff161115610ce3576000915050610ebc565b600080905060006001830390505b8163ffffffff168163ffffffff161115610e3e576000600283830363ffffffff1681610d1957fe5b0482039050610d26612b16565b600460008973ffffffffffffffffffffffffffffffffffffffff1673ffffffffffffffffffffffffffffffffffffffff16815260200190815260200160002060008363ffffffff1663ffffffff1681526020019081526020016000206040518060400160405290816000820160009054906101000a900463ffffffff1663ffffffff1663ffffffff1681526020016000820160049054906101000a90046bffffffffffffffffffffffff166bffffffffffffffffffffffff166bffffffffffffffffffffffff1681525050905086816000015163ffffffff161415610e1657806020015195505050505050610ebc565b86816000015163ffffffff161015610e3057819350610e37565b6001820392505b5050610cf1565b600460008773ffffffffffffffffffffffffffffffffffffffff1673ffffffffffffffffffffffffffffffffffffffff16815260200190815260200160002060008363ffffffff1663ffffffff16815260200190815260200160002060000160049054906101000a90046bffffffffffffffffffffffff1693505050505b92915050565b60066020528060005260406000206000915090505481565b6040518060400160405280600581526020017f515549434b00000000000000000000000000000000000000000000000000000081525081565b600080610f3883604051806060016040528060278152602001613d8960279139611938565b9050610f45338583611a07565b600191505092915050565b600080600560008473ffffffffffffffffffffffffffffffffffffffff1673ffffffffffffffffffffffffffffffffffffffff16815260200190815260200160002060009054906101000a900463ffffffff16905060008163ffffffff1611610fba576000611036565b600460008473ffffffffffffffffffffffffffffffffffffffff1673ffffffffffffffffffffffffffffffffffffffff16815260200190815260200160002060006001830363ffffffff1663ffffffff16815260200190815260200160002060000160049054906101000a90046bffffffffffffffffffffffff165b915050919050565b600060405161104c90613646565b60405180910390206040518060400160405280600981526020017f517569636b737761700000000000000000000000000000000000000000000000815250805190602001206110996121c3565b306040516020016110ad9493929190613767565b60405160208183030381529060405280519060200120905060006040516110d39061365b565b60405180910390208888886040516020016110f19493929190613722565b6040516020818303038152906040528051906020012090506000828260405160200161111e9291906135fa565b60405160208183030381529060405280519060200120905060006001828888886040516000815260200160405260405161115b94939291906137ac565b6020604051602081039080840390855afa15801561117d573d6000803e3d6000fd5b505050602060405103519050600073ffffffffffffffffffffffffffffffffffffffff168173ffffffffffffffffffffffffffffffffffffffff1614156111f9576040517f08c379a00000000000000000000000000000000000000000000000000000000081526004016111f090613875565b60405180910390fd5b600660008273ffffffffffffffffffffffffffffffffffffffff1673ffffffffffffffffffffffffffffffffffffffff1681526020019081526020016000206000815480929190600101919050558914611288576040517f08c379a000000000000000000000000000000000000000000000000000000000815260040161127f906138b5565b60405180910390fd5b874211156112cb576040517f08c379a00000000000000000000000000000000000000000000000000000000081526004016112c2906138f5565b60405180910390fd5b6112d5818b612003565b50505050505050505050565b600760009054906101000a900473ffffffffffffffffffffffffffffffffffffffff1673ffffffffffffffffffffffffffffffffffffffff163373ffffffffffffffffffffffffffffffffffffffff1614611371576040517f08c379a000000000000000000000000000000000000000000000000000000000815260040161136890613975565b60405180910390fd5b600082826113829190810190612ea2565b905060006113a882604051806060016040528060268152602001613edf60269139611938565b90506113c285826bffffffffffffffffffffffff166121d0565b5050505050565b60007fffffffffffffffffffffffffffffffffffffffffffffffffffffffffffffffff86141561141b577fffffffffffffffffffffffffffffffffffffffffffffffffffffffffffffffff9050611440565b61143d86604051806060016040528060258152602001613e8360259139611938565b90505b600060405161144e90613646565b60405180910390206040518060400160405280600981526020017f517569636b7377617000000000000000000000000000000000000000000000008152508051906020012061149b6121c3565b306040516020016114af9493929190613767565b60405160208183030381529060405280519060200120905060006040516114d590613631565b60405180910390208a8a8a600660008f73ffffffffffffffffffffffffffffffffffffffff1673ffffffffffffffffffffffffffffffffffffffff1681526020019081526020016000206000815480929190600101919050558b604051602001611544969594939291906136c1565b604051602081830303815290604052805190602001209050600082826040516020016115719291906135fa565b6040516020818303038152906040528051906020012090506000600182898989604051600081526020016040526040516115ae94939291906137ac565b6020604051602081039080840390855afa1580156115d0573d6000803e3d6000fd5b505050602060405103519050600073ffffffffffffffffffffffffffffffffffffffff168173ffffffffffffffffffffffffffffffffffffffff16141561164c576040517f08c379a000000000000000000000000000000000000000000000000000000000815260040161164390613955565b60405180910390fd5b8b73ffffffffffffffffffffffffffffffffffffffff168173ffffffffffffffffffffffffffffffffffffffff16146116ba576040517f08c379a00000000000000000000000000000000000000000000000000000000081526004016116b1906138d5565b60405180910390fd5b884211156116fd576040517f08c379a00000000000000000000000000000000000000000000000000000000081526004016116f490613895565b60405180910390fd5b84600160008e73ffffffffffffffffffffffffffffffffffffffff1673ffffffffffffffffffffffffffffffffffffffff16815260200190815260200160002060008d73ffffffffffffffffffffffffffffffffffffffff1673ffffffffffffffffffffffffffffffffffffffff16815260200190815260200160002060006101000a8154816bffffffffffffffffffffffff02191690836bffffffffffffffffffffffff1602179055508a73ffffffffffffffffffffffffffffffffffffffff168c73ffffffffffffffffffffffffffffffffffffffff167f8c5be1e5ebec7d5bd14f71427d1e84f3dd0314c0f7b2291e5b200ac8c7c3b925876040516118059190613a4f565b60405180910390a3505050505050505050505050565b6000600160008473ffffffffffffffffffffffffffffffffffffffff1673ffffffffffffffffffffffffffffffffffffffff16815260200190815260200160002060008373ffffffffffffffffffffffffffffffffffffffff1673ffffffffffffffffffffffffffffffffffffffff16815260200190815260200160002060009054906101000a90046bffffffffffffffffffffffff166bffffffffffffffffffffffff16905092915050565b6040516118d49061365b565b604051809103902081565b6004602052816000526040600020602052806000526040600020600091509150508060000160009054906101000a900463ffffffff16908060000160049054906101000a90046bffffffffffffffffffffffff16905082565b60006c010000000000000000000000008310829061198c576040517f08c379a00000000000000000000000000000000000000000000000000000000081526004016119839190613813565b60405180910390fd5b5082905092915050565b6000836bffffffffffffffffffffffff16836bffffffffffffffffffffffff16111582906119fa576040517f08c379a00000000000000000000000000000000000000000000000000000000081526004016119f19190613813565b60405180910390fd5b5082840390509392505050565b600073ffffffffffffffffffffffffffffffffffffffff168373ffffffffffffffffffffffffffffffffffffffff161415611a77576040517f08c379a0000000000000000000000000000000000000000000000000000000008152600401611a6e90613935565b60405180910390fd5b600073ffffffffffffffffffffffffffffffffffffffff168273ffffffffffffffffffffffffffffffffffffffff161415611ae7576040517f08c379a0000000000000000000000000000000000000000000000000000000008152600401611ade90613995565b60405180910390fd5b611b61600260008573ffffffffffffffffffffffffffffffffffffffff1673ffffffffffffffffffffffffffffffffffffffff16815260200190815260200160002060009054906101000a90046bffffffffffffffffffffffff1682604051806060016040528060378152602001613ea860379139611996565b600260008573ffffffffffffffffffffffffffffffffffffffff1673ffffffffffffffffffffffffffffffffffffffff16815260200190815260200160002060006101000a8154816bffffffffffffffffffffffff02191690836bffffffffffffffffffffffff160217905550611c48600260008473ffffffffffffffffffffffffffffffffffffffff1673ffffffffffffffffffffffffffffffffffffffff16815260200190815260200160002060009054906101000a90046bffffffffffffffffffffffff1682604051806060016040528060318152602001613c8a60319139612407565b600260008473ffffffffffffffffffffffffffffffffffffffff1673ffffffffffffffffffffffffffffffffffffffff16815260200190815260200160002060006101000a8154816bffffffffffffffffffffffff02191690836bffffffffffffffffffffffff1602179055508173ffffffffffffffffffffffffffffffffffffffff168373ffffffffffffffffffffffffffffffffffffffff167fddf252ad1be2c89b69c2b068fc378daa952ba7f163c4a11628f55a4df523b3ef83604051611d129190613a4f565b60405180910390a3611de3600360008573ffffffffffffffffffffffffffffffffffffffff1673ffffffffffffffffffffffffffffffffffffffff16815260200190815260200160002060009054906101000a900473ffffffffffffffffffffffffffffffffffffffff16600360008573ffffffffffffffffffffffffffffffffffffffff1673ffffffffffffffffffffffffffffffffffffffff16815260200190815260200160002060009054906101000a900473ffffffffffffffffffffffffffffffffffffffff168361247d565b505050565b600073ffffffffffffffffffffffffffffffffffffffff168273ffffffffffffffffffffffffffffffffffffffff161415611e58576040517f08c379a0000000000000000000000000000000000000000000000000000000008152600401611e4f906139b5565b60405180910390fd5b611ed2600260008473ffffffffffffffffffffffffffffffffffffffff1673ffffffffffffffffffffffffffffffffffffffff16815260200190815260200160002060009054906101000a90046bffffffffffffffffffffffff1682604051806060016040528060238152602001613e6060239139611996565b600260008473ffffffffffffffffffffffffffffffffffffffff1673ffffffffffffffffffffffffffffffffffffffff16815260200190815260200160002060006101000a8154816bffffffffffffffffffffffff02191690836bffffffffffffffffffffffff160217905550611f85611f66600054604051806060016040528060238152602001613e3d60239139611938565b82604051806060016040528060288152602001613d3960289139611996565b6bffffffffffffffffffffffff16600081905550600073ffffffffffffffffffffffffffffffffffffffff168273ffffffffffffffffffffffffffffffffffffffff167fddf252ad1be2c89b69c2b068fc378daa952ba7f163c4a11628f55a4df523b3ef83604051611ff79190613a4f565b60405180910390a35050565b6000600360008473ffffffffffffffffffffffffffffffffffffffff1673ffffffffffffffffffffffffffffffffffffffff16815260200190815260200160002060009054906101000a900473ffffffffffffffffffffffffffffffffffffffff1690506000600260008573ffffffffffffffffffffffffffffffffffffffff1673ffffffffffffffffffffffffffffffffffffffff16815260200190815260200160002060009054906101000a90046bffffffffffffffffffffffff16905082600360008673ffffffffffffffffffffffffffffffffffffffff1673ffffffffffffffffffffffffffffffffffffffff16815260200190815260200160002060006101000a81548173ffffffffffffffffffffffffffffffffffffffff021916908373ffffffffffffffffffffffffffffffffffffffff1602179055508273ffffffffffffffffffffffffffffffffffffffff168273ffffffffffffffffffffffffffffffffffffffff168573ffffffffffffffffffffffffffffffffffffffff167f3134e8a2e6d97e929a7e54011ea5485d7d196dd5f0ba4d4ef95803e8e3fc257f60405160405180910390a46121bd82848361247d565b50505050565b6000804690508091505090565b600073ffffffffffffffffffffffffffffffffffffffff168273ffffffffffffffffffffffffffffffffffffffff161415612240576040517f08c379a000000000000000000000000000000000000000000000000000000000815260040161223790613835565b60405180910390fd5b600061226482604051806060016040528060238152602001613cbb60239139611938565b90506122a1612283600054836bffffffffffffffffffffffff16612778565b604051806060016040528060288152602001613d6160289139611938565b6bffffffffffffffffffffffff1660008190555061232f600260008573ffffffffffffffffffffffffffffffffffffffff1673ffffffffffffffffffffffffffffffffffffffff16815260200190815260200160002060009054906101000a90046bffffffffffffffffffffffff1682604051806060016040528060268152602001613e1760269139612407565b600260008573ffffffffffffffffffffffffffffffffffffffff1673ffffffffffffffffffffffffffffffffffffffff16815260200190815260200160002060006101000a8154816bffffffffffffffffffffffff02191690836bffffffffffffffffffffffff1602179055508273ffffffffffffffffffffffffffffffffffffffff16600073ffffffffffffffffffffffffffffffffffffffff167fddf252ad1be2c89b69c2b068fc378daa952ba7f163c4a11628f55a4df523b3ef836040516123fa9190613a4f565b60405180910390a3505050565b6000808385019050846bffffffffffffffffffffffff16816bffffffffffffffffffffffff1610158390612471576040517f08c379a00000000000000000000000000000000000000000000000000000000081526004016124689190613813565b60405180910390fd5b50809150509392505050565b8173ffffffffffffffffffffffffffffffffffffffff168373ffffffffffffffffffffffffffffffffffffffff16141580156124c757506000816bffffffffffffffffffffffff16115b1561277357600073ffffffffffffffffffffffffffffffffffffffff168373ffffffffffffffffffffffffffffffffffffffff161461261f576000600560008573ffffffffffffffffffffffffffffffffffffffff1673ffffffffffffffffffffffffffffffffffffffff16815260200190815260200160002060009054906101000a900463ffffffff1690506000808263ffffffff161161256a5760006125e6565b600460008673ffffffffffffffffffffffffffffffffffffffff1673ffffffffffffffffffffffffffffffffffffffff16815260200190815260200160002060006001840363ffffffff1663ffffffff16815260200190815260200160002060000160049054906101000a90046bffffffffffffffffffffffff165b9050600061260d8285604051806060016040528060298152602001613dee60299139611996565b905061261b868484846127cd565b5050505b600073ffffffffffffffffffffffffffffffffffffffff168273ffffffffffffffffffffffffffffffffffffffff1614612772576000600560008473ffffffffffffffffffffffffffffffffffffffff1673ffffffffffffffffffffffffffffffffffffffff16815260200190815260200160002060009054906101000a900463ffffffff1690506000808263ffffffff16116126bd576000612739565b600460008573ffffffffffffffffffffffffffffffffffffffff1673ffffffffffffffffffffffffffffffffffffffff16815260200190815260200160002060006001840363ffffffff1663ffffffff16815260200190815260200160002060000160049054906101000a90046bffffffffffffffffffffffff165b905060006127608285604051806060016040528060288152602001613c3b60289139612407565b905061276e858484846127cd565b5050505b5b505050565b6000808284019050838110156127c3576040517f08c379a00000000000000000000000000000000000000000000000000000000081526004016127ba90613855565b60405180910390fd5b8091505092915050565b60006127f143604051806060016040528060358152602001613d0460359139612ac0565b905060008463ffffffff1611801561288657508063ffffffff16600460008773ffffffffffffffffffffffffffffffffffffffff1673ffffffffffffffffffffffffffffffffffffffff16815260200190815260200160002060006001870363ffffffff1663ffffffff16815260200190815260200160002060000160009054906101000a900463ffffffff1663ffffffff16145b156129215781600460008773ffffffffffffffffffffffffffffffffffffffff1673ffffffffffffffffffffffffffffffffffffffff16815260200190815260200160002060006001870363ffffffff1663ffffffff16815260200190815260200160002060000160046101000a8154816bffffffffffffffffffffffff02191690836bffffffffffffffffffffffff160217905550612a69565b60405180604001604052808263ffffffff168152602001836bffffffffffffffffffffffff16815250600460008773ffffffffffffffffffffffffffffffffffffffff1673ffffffffffffffffffffffffffffffffffffffff16815260200190815260200160002060008663ffffffff1663ffffffff16815260200190815260200160002060008201518160000160006101000a81548163ffffffff021916908363ffffffff16021790555060208201518160000160046101000a8154816bffffffffffffffffffffffff02191690836bffffffffffffffffffffffff16021790555090505060018401600560008773ffffffffffffffffffffffffffffffffffffffff1673ffffffffffffffffffffffffffffffffffffffff16815260200190815260200160002060006101000a81548163ffffffff021916908363ffffffff1602179055505b8473ffffffffffffffffffffffffffffffffffffffff167fdec2bacdd2f05b59de34da9b523dff8be42e5e38e818c82fdb0bae774387a7248484604051612ab1929190613a85565b60405180910390a25050505050565b600064010000000083108290612b0c576040517f08c379a0000000000000000000000000000000000000000000000000000000008152600401612b039190613813565b60405180910390fd5b5082905092915050565b6040518060400160405280600063ffffffff16815260200160006bffffffffffffffffffffffff1681525090565b600081359050612b5381613bc7565b92915050565b600081359050612b6881613bde565b92915050565b60008083601f840112612b8057600080fd5b8235905067ffffffffffffffff811115612b9957600080fd5b602083019150836001820283011115612bb157600080fd5b9250929050565b600081359050612bc781613bf5565b92915050565b600081359050612bdc81613c0c565b92915050565b600081359050612bf181613c23565b92915050565b600060208284031215612c0957600080fd5b6000612c1784828501612b44565b91505092915050565b60008060408385031215612c3357600080fd5b6000612c4185828601612b44565b9250506020612c5285828601612b44565b9150509250929050565b600080600060608486031215612c7157600080fd5b6000612c7f86828701612b44565b9350506020612c9086828701612b44565b9250506040612ca186828701612bb8565b9150509250925092565b600080600080600080600060e0888a031215612cc657600080fd5b6000612cd48a828b01612b44565b9750506020612ce58a828b01612b44565b9650506040612cf68a828b01612bb8565b9550506060612d078a828b01612bb8565b9450506080612d188a828b01612be2565b93505060a0612d298a828b01612b59565b92505060c0612d3a8a828b01612b59565b91505092959891949750929550565b600080600060408486031215612d5e57600080fd5b6000612d6c86828701612b44565b935050602084013567ffffffffffffffff811115612d8957600080fd5b612d9586828701612b6e565b92509250509250925092565b60008060408385031215612db457600080fd5b6000612dc285828601612b44565b9250506020612dd385828601612bb8565b9150509250929050565b60008060008060008060c08789031215612df657600080fd5b6000612e0489828a01612b44565b9650506020612e1589828a01612bb8565b9550506040612e2689828a01612bb8565b9450506060612e3789828a01612be2565b9350506080612e4889828a01612b59565b92505060a0612e5989828a01612b59565b9150509295509295509295565b60008060408385031215612e7957600080fd5b6000612e8785828601612b44565b9250506020612e9885828601612bcd565b9150509250929050565b600060208284031215612eb457600080fd5b6000612ec284828501612bb8565b91505092915050565b612ed481613ae0565b82525050565b612ee381613af2565b82525050565b612ef281613afe565b82525050565b612f09612f0482613afe565b613bac565b82525050565b6000612f1a82613ab9565b612f248185613ac4565b9350612f34818560208601613b79565b612f3d81613bb6565b840191505092915050565b6000612f5382613aae565b612f5d8185613ac4565b9350612f6d818560208601613b79565b612f7681613bb6565b840191505092915050565b6000612f8e603083613ac4565b91507f517569636b3a3a6d696e743a2063616e6e6f74207472616e7366657220746f2060008301527f746865207a65726f2061646472657373000000000000000000000000000000006020830152604082019050919050565b6000612ff4600283613ad5565b91507f19010000000000000000000000000000000000000000000000000000000000006000830152600282019050919050565b6000613034601b83613ac4565b91507f536166654d6174683a206164646974696f6e206f766572666c6f7700000000006000830152602082019050919050565b6000613074602783613ac4565b91507f517569636b3a3a64656c656761746542795369673a20696e76616c696420736960008301527f676e6174757265000000000000000000000000000000000000000000000000006020830152604082019050919050565b60006130da602083613ac4565b91507f517569636b3a3a7065726d69743a207369676e617475726520657870697265646000830152602082019050919050565b600061311a602383613ac4565b91507f517569636b3a3a64656c656761746542795369673a20696e76616c6964206e6f60008301527f6e636500000000000000000000000000000000000000000000000000000000006020830152604082019050919050565b6000613180601b83613ac4565b91507f517569636b3a3a7065726d69743a20756e617574686f72697a656400000000006000830152602082019050919050565b60006131c0602783613ac4565b91507f517569636b3a3a64656c656761746542795369673a207369676e61747572652060008301527f65787069726564000000000000000000000000000000000000000000000000006020830152604082019050919050565b6000613226605283613ad5565b91507f5065726d69742861646472657373206f776e65722c616464726573732073706560008301527f6e6465722c75696e743235362076616c75652c75696e74323536206e6f6e636560208301527f2c75696e7432353620646561646c696e652900000000000000000000000000006040830152605282019050919050565b60006132b2602883613ac4565b91507f517569636b3a3a6765745072696f72566f7465733a206e6f742079657420646560008301527f7465726d696e65640000000000000000000000000000000000000000000000006020830152604082019050919050565b6000613318604383613ad5565b91507f454950373132446f6d61696e28737472696e67206e616d652c75696e7432353660008301527f20636861696e49642c6164647265737320766572696679696e67436f6e74726160208301527f63742900000000000000000000000000000000000000000000000000000000006040830152604382019050919050565b60006133a4603d83613ac4565b91507f517569636b3a3a5f7472616e73666572546f6b656e733a2063616e6e6f74207460008301527f72616e736665722066726f6d20746865207a65726f20616464726573730000006020830152604082019050919050565b600061340a602083613ac4565b91507f517569636b3a3a7065726d69743a20696e76616c6964207369676e61747572656000830152602082019050919050565b600061344a600e83613ac4565b91507f496e76616c6964206163636573730000000000000000000000000000000000006000830152602082019050919050565b600061348a603b83613ac4565b91507f517569636b3a3a5f7472616e73666572546f6b656e733a2063616e6e6f74207460008301527f72616e7366657220746f20746865207a65726f206164647265737300000000006020830152604082019050919050565b60006134f0602283613ac4565b91507f517569636b3a3a206275726e2066726f6d20746865207a65726f20616464726560008301527f73730000000000000000000000000000000000000000000000000000000000006020830152604082019050919050565b6000613556603a83613ad5565b91507f44656c65676174696f6e28616464726573732064656c6567617465652c75696e60008301527f74323536206e6f6e63652c75696e7432353620657870697279290000000000006020830152603a82019050919050565b6135b881613b28565b82525050565b6135c781613b32565b82525050565b6135d681613b42565b82525050565b6135e581613b67565b82525050565b6135f481613b4f565b82525050565b600061360582612fe7565b91506136118285612ef8565b6020820191506136218284612ef8565b6020820191508190509392505050565b600061363c82613219565b9150819050919050565b60006136518261330b565b9150819050919050565b600061366682613549565b9150819050919050565b60006020820190506136856000830184612ecb565b92915050565b60006020820190506136a06000830184612eda565b92915050565b60006020820190506136bb6000830184612ee9565b92915050565b600060c0820190506136d66000830189612ee9565b6136e36020830188612ecb565b6136f06040830187612ecb565b6136fd60608301866135af565b61370a60808301856135af565b61371760a08301846135af565b979650505050505050565b60006080820190506137376000830187612ee9565b6137446020830186612ecb565b61375160408301856135af565b61375e60608301846135af565b95945050505050565b600060808201905061377c6000830187612ee9565b6137896020830186612ee9565b61379660408301856135af565b6137a36060830184612ecb565b95945050505050565b60006080820190506137c16000830187612ee9565b6137ce60208301866135cd565b6137db6040830185612ee9565b6137e86060830184612ee9565b95945050505050565b6000602082019050818103600083015261380b8184612f48565b905092915050565b6000602082019050818103600083015261382d8184612f0f565b905092915050565b6000602082019050818103600083015261384e81612f81565b9050919050565b6000602082019050818103600083015261386e81613027565b9050919050565b6000602082019050818103600083015261388e81613067565b9050919050565b600060208201905081810360008301526138ae816130cd565b9050919050565b600060208201905081810360008301526138ce8161310d565b9050919050565b600060208201905081810360008301526138ee81613173565b9050919050565b6000602082019050818103600083015261390e816131b3565b9050919050565b6000602082019050818103600083015261392e816132a5565b9050919050565b6000602082019050818103600083015261394e81613397565b9050919050565b6000602082019050818103600083015261396e816133fd565b9050919050565b6000602082019050818103600083015261398e8161343d565b9050919050565b600060208201905081810360008301526139ae8161347d565b9050919050565b600060208201905081810360008301526139ce816134e3565b9050919050565b60006020820190506139ea60008301846135af565b92915050565b6000602082019050613a0560008301846135be565b92915050565b6000604082019050613a2060008301856135be565b613a2d60208301846135eb565b9392505050565b6000602082019050613a4960008301846135cd565b92915050565b6000602082019050613a6460008301846135dc565b92915050565b6000602082019050613a7f60008301846135eb565b92915050565b6000604082019050613a9a60008301856135dc565b613aa760208301846135dc565b9392505050565b600081519050919050565b600081519050919050565b600082825260208201905092915050565b600081905092915050565b6000613aeb82613b08565b9050919050565b60008115159050919050565b6000819050919050565b600073ffffffffffffffffffffffffffffffffffffffff82169050919050565b6000819050919050565b600063ffffffff82169050919050565b600060ff82169050919050565b60006bffffffffffffffffffffffff82169050919050565b6000613b7282613b4f565b9050919050565b60005b83811015613b97578082015181840152602081019050613b7c565b83811115613ba6576000848401525b50505050565b6000819050919050565b6000601f19601f8301169050919050565b613bd081613ae0565b8114613bdb57600080fd5b50565b613be781613afe565b8114613bf257600080fd5b50565b613bfe81613b28565b8114613c0957600080fd5b50565b613c1581613b32565b8114613c2057600080fd5b50565b613c2c81613b42565b8114613c3757600080fd5b5056fe517569636b3a3a5f6d6f7665566f7465733a20766f746520616d6f756e74206f766572666c6f7773517569636b3a3a77697468647261773a20616d6f756e7420657863656564732039362062697473517569636b3a3a5f7472616e73666572546f6b656e733a207472616e7366657220616d6f756e74206f766572666c6f7773517569636b3a3a6d696e743a20616d6f756e7420657863656564732039362062697473517569636b3a3a617070726f76653a20616d6f756e7420657863656564732039362062697473517569636b3a3a5f7772697465436865636b706f696e743a20626c6f636b206e756d62657220657863656564732033322062697473517569636b3a3a206275726e20616d6f756e74206578636565647320746f74616c20737570706c79517569636b3a3a6d696e743a20746f74616c537570706c7920657863656564732039362062697473517569636b3a3a7472616e736665723a20616d6f756e7420657863656564732039362062697473517569636b3a3a7472616e7366657246726f6d3a207472616e7366657220616d6f756e742065786365656473207370656e64657220616c6c6f77616e6365517569636b3a3a5f6d6f7665566f7465733a20766f746520616d6f756e7420756e646572666c6f7773517569636b3a3a6d696e743a207472616e7366657220616d6f756e74206f766572666c6f7773517569636b3a3a20746f74616c537570706c7920657863656564732039362062697473517569636b3a3a206275726e20616d6f756e7420657863656564732062616c616e6365517569636b3a3a7065726d69743a20616d6f756e7420657863656564732039362062697473517569636b3a3a5f7472616e73666572546f6b656e733a207472616e7366657220616d6f756e7420657863656564732062616c616e6365517569636b3a3a6465706f7369743a20616d6f756e7420657863656564732039362062697473a365627a7a72315820ff6a8b55df99202ccb8fb5c154333d83b7ce33a857c377144e9c8dc44a81a5746c6578706572696d656e74616cf564736f6c63430005100040",
  "linkReferences": {},
  "deployedLinkReferences": {}
}